:020000040800F2
:1000000060E70120B1010008855E0008DD4C0008B2
:10001000815E0008D909000845950008000000002D
:10002000000000000000000000000000C96400089B
:10003000770B0008000000002F61000869650008C8
:10004000CB010008CB010008CB010008CB01000860
:10005000CB01000831610008CB010008CB0100088A
:10006000CB010008CB010008CB010008CB01000840
:10007000CB010008CB0100081D0A0008CB010008D5
:10008000CB010008CB010008CB01000800000000F4
:10009000000000000000000000000000BD1100088A
:1000A000CB010008CB010008CB010008CB01000800
:1000B000CB0100083D660008CB010008F14C0008A8
:1000C000E14C0008CB010008CB01000835610008B5
:1000D00045610008ED6E0008CD6F000800000000CB
:1000E000CB010008CB010008CB0100080000000094
:1000F000000000000000000000000000CB0100082C
:1001000000000000CB010008CB010008CB01000873
:1001100000000000000000000000000000000000DF
:10012000CB010008CB0100082D0A0008CB01000814
:100130003D0A000800000000000000000000000070
:10014000000000000000000000000000895E0008C0
:100150004D0A0008CB0100085D0A0008CB01000829
:10016000CB010008CB0100080000000000000000E7
:10017000000000000000000000000000000000007F
:1001800000000000CB01000800000000000000009B
:10019000CB010008CB010008DFF810D000F06AFAAC
:1001A00000480047A59D0008AFF3008060E70120EC
:1001B0000648804706480047FEE7FEE7FEE7FEE701
:1001C000FEE7FEE7FEE7FEE7FEE7FEE72166000842
:1001D000990100082DE9F05F0546002092469B46F4
:1001E00088460646814640241BE02846414647464D
:1001F000224600F088F953465A46C01A914110D35E
:1002000011461846224600F06FF92D1A67EB0108D7
:100210004F4622460120002100F066F917EB000945
:100220004E41201EA4F10104DFDC484631462A4637
:100230004346BDE8F09F40EA01039B0703D009E075
:1002400008C9121F08C0042AFAD203E011F8013BC2
:1002500000F8013B521EF9D27047D2B201E000F81B
:10026000012B491EFBD270470022F6E710B513465A
:100270000A4604461946FFF7F0FF204610BD70B548
:10028000064609F0A5FA046805460A220021304610
:1002900000F05BF92C6070BD2DE9FE4F804681EACD
:1002A0000300C00F0C46009021F0004123F00045F0
:1002B000B8EB0200A94105D24046214690461C46B3
:1002C0000B46024623F00040104347D0270DC7F3EA
:1002D0000A00C3F30A510290401A019040286BDAD9
:1002E000C3F3130040F4801B0098924620B1002312
:1002F000D2EB030A63EB0B0B01985946C0F14002A5
:10030000504600F0F1F806460D4650465946019A0F
:1003100000F009F910EB08006141002487EA11524E
:1003200084EAE7731A4340D0009A62B3019A012A23
:100330004FEA075215DC001B61EB02014FF000424F
:1003400002EA0752CDE90042001C41F58011324615
:100350002B4600F041F903B0BDE8F08F404621463E
:10036000F9E7001B61EB0201001C41F58013001846
:100370005B412018A2F5001747EB030140EAD57056
:10038000B6196D4111E06D084FEA360645EAC075B1
:100390004FEA0752001B61EB0201001C41F580117E
:1003A00049084FEA30000019514132462B4603B04C
:1003B000BDE8F04F00F001B9009801224000002391
:1003C000D0EB020263EBE073009821464FEAE07441
:1003D000B8EB000061EB0401E9E783F000435BE761
:1003E00081F0004158E70EB5C10F80EAE070084483
:1003F000CA07002140F233438DE80E000A460B463F
:1004000000F0EAF803B000BD0EB540F233410291AE
:100410000021CDE900110A460B4600F0DDF803B0DB
:1004200000BD70B5C1F30A5201F000450024C1F3CC
:10043000130140F2FF3341F480119A4201DA0020A7
:1004400070BD40F233439A42A2F2334203DC52427F
:1004500000F059F800E090402C43F1D0404270BDCC
:10046000C1F30A5210B5C1F3130140F2FF3341F456
:1004700080119A4201DA002010BD40F233439A42C3
:10048000A2F2334203DC524200F03DF810BD90402E
:1004900010BD00F0004230F000400AD0C10D01F55F
:1004A0006071C0F3160042EA0151C20840071143CF
:1004B000704700200146704730B5041E71F10004FA
:1004C00004DB4FF00044404264EB0101141E73F161
:1004D000000405DB1C464FF00043524263EB04036B
:1004E000994208BF904230BD202A04DB203A00FA2E
:1004F00002F1002070479140C2F1200320FA03F37B
:10050000194390407047202A04DB203A21FA02F078
:100510000021704721FA02F3D040C2F1200291403D
:10052000084319467047202A06DBCB17203A41FAC8
:1005300002F043EAE07306E041FA02F3D040C2F170
:10054000200291400843194670472DE9F047914633
:100550000F4680460446002614F8015B2DB100F0DA
:100560009BF80068405DC007F6D12B2D02D02D2DE1
:1005700018D0641E4A463946204600F091F827B14B
:100580003968A14201D1C7F8008071054FF002041B
:100590000BD54042002803DD09F01AF90460A007DA
:1005A000BDE8F08746F48066E4E70028F8DA09F051
:1005B0000FF904606FF00040F2E710B5141E73F1FC
:1005C000000408DA401C41F1000192185B411A4313
:1005D00001D120F0010010BD2DE9F04D92469B465F
:1005E00011B1B1FA81F202E0B0FA80F22032904605
:1005F000FFF77AFF04460F4640EA0A0041EA0B0182
:1006000053465A46084313D0114653EA010019D005
:10061000C8F140025046FFF776FF05460E465046A9
:1006200059464246FFF760FF084305D0012004E029
:1006300020463946BDE8F08D0020054346EAE076C5
:100640002C4337430A986305E40AA0EB0800002214
:10065000FD0A44EA47540A3002D500200146E9E782
:10066000010510196941DDE9084500196941BDE836
:10067000F04DA2E7064C074D06E0E06840F00103AC
:1006800094E8070098471034AC42F6D3FFF788FD92
:10069000C4AE0008E4AE000800487047C0AE0008D1
:1006A0002DE9F05F82460078002715468B460AF157
:1006B0000104B946302801D09DB113E014F8010BB4
:1006C0000127782803D0582801D045B10AE00DB1A0
:1006D000102D07D10027102514F8010B02E0082582
:1006E00000E00A250026B0460EE005FB080005FBE9
:1006F00006F1012701EB10461FFA80F8B6F5803F9E
:1007000000D3B94614F8010B294600F018F8002868
:10071000EBDABBF1000F05D00FB1641E00E05446C8
:10072000CBF80040B9F1000F06D009F051F80221D2
:100730000160C81EBDE8F09F48EA0640FAE73A2883
:1007400000D2303820F02002412A01D3A2F1370034
:10075000884201D34FF0FF30704770B58C1810F805
:10076000015B15F0070301D110F8013B2A1106D1F6
:1007700010F8012B03E010F8016B01F8016B5B1E10
:10078000F9D12B0705D40023521E0DD401F8013BEB
:10079000FAE710F8013BCB1A921C03E013F8015B57
:1007A00001F8015B521EF9D5A142D8D3002070BDDB
:1007B00070B50546AC6B206C00F0500050BB206C4F
:1007C00040F4007020642068806800F04050E8B970
:1007D000207ED8B92068C06A00F4700020B120687B
:1007E000806800F4806088B92068406820F02000AC
:1007F00021684860206C20F480702064206C00F434
:10080000805018B9206C40F001002064204600F0B0
:100810009FFE0BE0206C00F0100018B1204600F0A5
:100820000AFF03E0A06BC16C2846884770BD70B515
:100830000546AC6B40202064606C40F004006064AE
:10084000204600F0F8FE70BD70B50446A56B284642
:1008500000F0F0FE70BD000055494A6822F44032B5
:100860004A604A6843681A434A600268526822F440
:10087000807203685A6002685368026943EA022280
:1008800003685A600268526822F0407203685A6036
:100890000268526883681A4303685A600268926863
:1008A00022F4006203689A6002689268C3681A437F
:1008B00003689A603F4B826A9A4218D00268926835
:1008C00022F0706203689A6002689268836A1A4331
:1008D00003689A600268926822F0405203689A6046
:1008E00002689268C36A1A4303689A600BE0026860
:1008F000926822F0706203689A600268926822F03F
:10090000405203689A600268926822F0020203680B
:100910009A6002689368027E43EA420203689A6022
:100920002022125CA2B10268526842F4006203689D
:100930005A600268526822F4604203685A60026892
:100940005368426A521E43EA423203685A6005E025
:100950000268526822F4006203685A600268D26A30
:1009600022F470020368DA620268D36A828B521E34
:1009700043EA02520368DA620268926822F4007263
:1009800003689A600268936890F8302043EA422234
:1009900003689A600268926822F4806203689A6031
:1009A00002689368426943EA822203689A6070474A
:1009B000002301400100000F10B50A22034904483A
:1009C00000F0D0FE034803F04FFD10BDE0190120F8
:1009D000F81C0120A01D012000BFFEE710B5024653
:1009E000002004E012F8013B4340044CE05C0B1E85
:1009F000A1F10104E1B2F5D110BD000010A400087E
:100A000000E000BF0448808AB0F5004FF9DA0248E0
:100A1000808A0028F5D07047A682002010B50248D1
:100A200000F0B4FF10BD0000041B012010B5024807
:100A300000F0ACFF10BD0000A41A012010B5024860
:100A400000F0A4FF10BD0000401D012010B50248B9
:100A500000F09CFF10BD0000E41B012010B502480F
:100A600000F094FF10BD0000441C012001460878EE
:100A700010381823B0FBF3F20848805CC865032ADD
:100A800005D908686FF30900001D886503E0086850
:100A90006FF309008865886D704700001CAE000880
:100AA000014600208A6A8B69CBB932B1012A0DD088
:100AB000022A03D0032A10D10EE000BFCB6A03F054
:100AC0008073B3F1807F00D1012007E0CB6AB3F1DE
:100AD000C07F00D1012001E000E000BF34E08B695D
:100AE000B3F5005F1AD132B1012A07D0022A03D030
:100AF000032A11D10AE000BF01200EE0CB6A03F007
:100B00008073B3F1807F00D1012006E0CB6AB3F19E
:100B1000C07F00D1012000E000BF15E032B1012A02
:100B200005D0022A04D0032A0CD103E000BF00BF85
:100B3000012008E0CB6A03F08073B3F1807F00D11D
:100B4000012000E000BF00BF704730B50468246892
:100B500024F4802405682C60046863608468402C59
:100B600004D10468A2600468E16003E00468A16045
:100B70000468E26030BD704710B501200449087078
:100B80004FF47A7001F0E2F803200149087010BDBB
:100B9000804D00202DE9F0412DED028B04460E46DC
:100BA000012E02D0022E6ED1F1E0F4480078012827
:100BB00005D10020F24908705020F2490870F04831
:100BC00002786AE0F048805C00B165E002EB8200E8
:100BD000010101205DE00B185B1E34F813300D1885
:100BE00034F815505B1B1E2B12DD0B18E74DEB5C28
:100BF0000A2B01DB0A2307E00B18E44DEB5C5B1CBE
:100C0000DBB20D18E14F7B550D18E04F7B5510E01E
:100C10000B18DE4DEB5C002B07DD0B18EB5C5B1E4D
:100C2000DBB20D18D94F7B5500E000230D18D74FCC
:100C30007B550B185B1C34F813300D1834F8155025
:100C40005B1B1E2B12DD0B18D14DEB5C0A2B01DB5D
:100C50000A2307E00B18CE4DEB5C5B1CDBB20D18D2
:100C6000CB4F7B550D18CA4F7B5511E00B18C84D63
:100C7000EB5C002B08DD0B18EB5C5B1EDBB20D1888
:100C8000C34F7B5501E073E100230D18C04F7B5526
:100C9000401C4F289FDB00BF521CBA48007882429C
:100CA00090DB012558E00027B846B549087813E0E5
:100CB00000EB800105EB0111B44A515C0A2900DB0D
:100CC0007F1C00EB800105EB0111B14A515C0A2940
:100CD00001DB08F10108401CAA4909788842E7DBDA
:100CE0003846FFF780FB41EC180B9FEDAA0B53EC45
:100CF000102BFFF7E1FB0FD24046FFF774FB41ECEE
:100D0000180B9FEDA40B53EC102BFFF7D5FB03D270
:100D100001209D4948551EE03846FFF764FB41EC31
:100D2000180B9FED9C0B53EC102BFFF7C5FB03D268
:100D30000220954948550EE04046FFF754FB41EC30
:100D4000180B9FED940B53EC102BFFF7B5FB02D261
:100D500003208D4948556D1C4F2DA4DB8748007832
:100D6000032813D1864800780A30854908708548E1
:100D700000780A308349087008460078502805DD5D
:100D800000207F4908700A207E490870F0E07B4807
:100D90000078022805D10020804908705020804941
:100DA00008707E48027869E07E48805C00B164E0AB
:100DB00002EB8200010101205CE00B1834F81350B3
:100DC0000B185B1E34F81330EB1A142B12DD0B18C2
:100DD0006E4DEB5C0A2B01DB0A2307E00B186B4D11
:100DE000EB5C5B1CDBB20D18684F7B550D18674F31
:100DF0007B5510E00B18654DEB5C002B07DD0B18E5
:100E0000EB5C5B1EDBB20D18604F7B5500E00023EE
:100E10000D185E4F7B550B1834F813500B185B1CE4
:100E200034F81330EB1A142B12DD0B18584DEB5C11
:100E30000A2B01DB0A2307E00B18554DEB5C5B1C0A
:100E4000DBB20D18524F7B550D18514F7B5510E0FA
:100E50000B184F4DEB5C002B07DD0B18EB5C5B1E9A
:100E6000DBB20D184A4F7B5500E000230D18484FA8
:100E70007B55401C4F28A0DB00BF521C484800781F
:100E8000824291DB012558E00027B84643490878A3
:100E900013E000EB800105EB01113C4A515C0A298B
:100EA00000DB7F1C00EB800105EB0111384A515C2F
:100EB0000A2901DB08F10108401C394909788842F8
:100EC000E7DB3846FFF78FFA41EC180B9FED310B4B
:100ED00053EC102BFFF7F0FA0FD24046FFF783FADE
:100EE00041EC180B9FED2B0B53EC102BFFF7E4FAA2
:100EF00003D201202B4948551EE03846FFF773FA0C
:100F000041EC180B9FED230B53EC102BFFF7D4FA99
:100F100003D20220234948550EE04046FFF763FA0A
:100F200041EC180B9FED1B0B53EC102BFFF7C4FA91
:100F300002D203201B4948556D1C4F2DA4DB0F48DE
:100F40000078032813D1154800780A301349087037
:100F5000134800780A301249087008460078502873
:100F600005DD00200D4908700A200D49087000BFFA
:100F700000BFBDEC028BBDE8F0810000804D002079
:100F8000184E0020194E0020BCDA0120305D0120EF
:100F90004C76012000000000000040401A4E002066
:100FA0001B4E00200CDB012070B50446012500BF5C
:100FB000206808B12068004700BF00F0F7FF14491F
:100FC000086024E000BF00BF00BF1248206000BFDF
:100FD00000F0ECFF0E490968401AB0F57A7F09D994
:100FE0000D48007830B90D48007818B90C480078E1
:100FF000012801D0002070BD00BF43F23E22094904
:101000000948FFF718F900F0D1FF01490860D9E756
:10101000144E0020CB0F0008904D0020F04D002012
:10102000104E002022E70020E4B4002070B52DED22
:10103000048B05465A48007888B1002005E035F851
:101040001010584A22F81010401C41F61C1188421A
:10105000F5DB002052490870BDEC048B70BD002404
:1010600092E035F814004F4931F81410401A25D198
:101070004D49085DFFF7C8F941EC190B9FED4B0B8B
:1010800053EC102BFFF718FA02D89FED480B0AE03B
:101090004549095D491CC9B2434A11550846FFF745
:1010A000B3F941EC100BB0EE408AF0EE608A51ECDF
:1010B000180BFFF7D5F93C49085564E0601E00287D
:1010C00053D4601CB0F5C85F4FDA35F81410601EB9
:1010D00035F81000081AB0F5967F08DD35F81410C1
:1010E000601C35F81000081AB0F5967F11DC35F851
:1010F0001410601E35F81000081A10F5967F25DAD6
:1011000035F81410601C35F81000081A10F5967F99
:101110001CDA2549085DFFF777F941EC190B9FEDC3
:10112000230B53EC102BFFF7C7F902D89FED1F0BD1
:1011300001E09FED200BB0EE408AF0EE608A51ECAA
:10114000180BFFF78DF9184908551CE01648005D8B
:10115000002806DD1448005D401EC0B21249085543
:1011600000E00020104908550DE00F48005D002800
:1011700006DD0D48005D401EC0B20B49085500E079
:10118000002009490855641CB4F5C85FFFF669AF33
:1011900041F61C1229460348FFF74DF800BF5BE7F4
:1011A0001C4E0020688F0120A0C10120000000001B
:1011B00000002E40000000000000244010B51B4835
:1011C0000068401C194908604FF4807000F0E8FD89
:1011D0001748007878B91748006818B115480068B2
:1011E000002803DA00201349086004E01148006871
:1011F000001F1049086010480078012812D10F48DC
:101200000068401C0D490860084600680A280CDD8B
:101210000B4802F06FFC00200749087001200949C3
:10122000087002E000200249087010BDE04D002067
:10123000814D0020D44D0020834D0020DC4D002046
:101240004C1A0120D84D00207047F0B5034601200C
:1012500087E01A5C012A21D1421C9A5CF2B9002273
:1012600019E002EB820500EB05156D1E31F81560E3
:1012700002EB820500EB05156D1C31F81550741951
:1012800004EBD475C5F34F0502EB820600EB06169E
:1012900021F81650521C502AE3DB61E01A5C012A47
:1012A00002D01A5C022A5BD1421C4F2A58DA9A5C9F
:1012B000032A03D0421C9A5C012A51D10225821EC6
:1012C000002A00D501250224821C502A00DB0124BB
:1012D000002242E002EB820600EB0616761B31F894
:1012E000167002EB820600EB0616761E31F81660C9
:1012F0003E4402EB820700EB0717274431F81770D2
:101300003E44032796FBF7F602EB820700EB071734
:1013100021F8176002EB820600EB0616761E31F804
:10132000167002EB820600EB0616761C31F816608A
:101330003E4402EB820700EB0717274431F8177091
:101340003E44032796FBF7F6B7B202EB820600EBAA
:101350000616761C21F81670521C502ABADB00BF04
:10136000401C4F28FFF675AFF0BD0000F0B50546F4
:10137000002414E00C48005D0A280FDB502094FB89
:10138000F0F100FB114694FBF0F7074B2A46394673
:10139000304608F0C9FC25F8140000BF641CB4F501
:1013A000C85FE7DBF0BD0000A0C1012038B50246F0
:1013B0000020009000BF92F83C00012801D10220DB
:1013C00038BD012082F83C0000BF0868092816D902
:1013D0001068C0680C780A3C04EB44050724AC4054
:1013E000A0431468E0600C780A3C04EB440488686D
:1013F000A0401468E46820431468E06013E01068BB
:1014000000690C7804EB44050724AC40A043146841
:1014100020610C7804EB44048868A04014682469B7
:101420002043146820614868072817D21068406B71
:101430000C79641E04EB84051F24AC40A04314689F
:101440006063088880B20C79641E04EB8404A040B9
:101450001468646B20431468606331E048680D28A9
:1014600017D21068006B0C79E41F04EB84051F246D
:10147000AC40A04314682063088880B20C79E41F54
:1014800004EB8404A0401468246B20431468206398
:1014900016E01068C06A0C790D3C04EB84051F242B
:1014A000AC40A0431468E062088880B20C790D3C1F
:1014B00004EB8404A0401468E46A20431468E062EA
:1014C0001E4B1F4C1068A0420AD10868122807D191
:1014D000586820F400005860586840F48000586054
:1014E000174C1068A04222D1164C0868A04202D0C6
:1014F000086811281BD1586820F48000586058688B
:1015000040F4000058600F4C0868A0420FD10E480C
:1015100000680E4CB0FBF4F000EB8000400000903F
:1015200002E00098401E009000980028F9D100BF0A
:10153000002082F83C0000BF00BF41E700230140CB
:1015400000200140120000102C4E002040420F00ED
:1015500070B52DED068B06469FED2C0AB0EE408A45
:1015600000200BE02A4931F8101000EE101AB8EEF6
:10157000400A30EE080AB0EE408A401C0A28F1DB2F
:10158000B2EE040AC8EE000AB0EE608A18EE100A45
:10159000FEF77FFF41EC1A0B9FED1E0B53EC102B57
:1015A000FEF77AFE41EC190BFEF73BFF044600EE16
:1015B000104AB8EEC00ADFED190A20EE200A1848DA
:1015C00080ED000A90ED000AF2EE040A20EE200AF7
:1015D000D0ED000A9FED131A71EE600A80EE201A1A
:1015E000114880ED001A11480F4909680160042173
:1015F000FFF7F4F905460D4805710A2204490C4825
:1016000000F0B0F8BDEC068B70BD000000000000DB
:10161000E0190120000000000000E03F85EB313AB6
:10162000744D002085EB3140704D00206A4D002044
:10163000F81C01207047704770B5044600250CB9AE
:10164000012070BD1549A06A884200D000BF206CFF
:1016500030B9204600F024F80020606484F83C0093
:10166000206C00F0100088B9206C20F4885040F005
:10167000020020642046FFF7EFF800206064206C31
:1016800020F0020040F00100206400E0012500BFCE
:10169000002084F83C0000BF2846D2E70100000F7C
:1016A00010B586B00446142101A8FEF7DDFD2849D7
:1016B0002068884249D100BF00200090254800687A
:1016C00040F48070234908600846006800F4807088
:1016D000009000BF00BF00BF002000901D481438DC
:1016E000006840F001001B49143908600846006892
:1016F00000F00100009000BF00BF02200190032015
:1017000002900020039001A9134800F057FB1348F2
:101710001349086000204860002111488160C160C1
:101720004FF48061016149004161890081610021BC
:10173000C1610162416200F049FA08B1FFF784FD1E
:1017400000BF0748A063846300BF06B010BD00005F
:101750000020014044380240000002407064024012
:10176000401D0120F8B504460D46164600200090A5
:1017700000BF94F83C00012801D10220F8BD0120EF
:1017800084F83C0000BF2068806800F00100A0B928
:101790002068806840F00100216888603D4800684A
:1017A0003D49B0FBF1F000EB4000009002E00098F2
:1017B000401E009000980028F9D12068806800F051
:1017C0000100002864D0206C40F20161884340F49D
:1017D000807020642068406800F4806028B1206C2C
:1017E00020F4005040F480502064206C00F48050BD
:1017F000B0F5805F04D1606C20F00600606401E009
:101800000020606400BF002084F83C0000BF234F2C
:101810002348A16BC8632348A16B08642248A16BCD
:10182000C8646FF02200216808602068406840F0BA
:101830008060216848602068806840F4807021687A
:101840008860226802F14C0133462A46A06B00F002
:1018500033FA786800F01F0058B92068806800F0FB
:10186000405028B92068806840F080402168886036
:101870000EE00E49206888420AD12068806800F096
:10188000405028B92068806840F080402168886016
:10189000002073E72C4E002040420F00002301403F
:1018A000B1070008490800082F080008002001407F
:1018B00070B50446A56D00F079FB064694F8350036
:1018C000022808D08020606500BF002084F8340022
:1018D00000BF012070BD2068006820F0160021685C
:1018E00008602068406920F0800021684861206C11
:1018F00008B9A06C28B12068006820F008002168B1
:1019000008602068006820F00100216808600FE08E
:1019100000F04CFB801B05280AD92020606500BF21
:10192000002084F8340000BF032084F83500D1E79C
:101930002068006800F001000028E9D194F85C10EC
:101940003F208840A86000BF002084F8340000BF1A
:10195000012084F835000020BCE7014691F83500ED
:10196000022803D08020486501207047052081F8B7
:1019700035000868006820F001000A681060002047
:10198000F3E7014691F8350070470000F8B50446CA
:10199000002000908C4800684FF41651B0FBF1F71E
:1019A000A56D2E6894F85C1008208840304098B1EE
:1019B0002068006800F0040070B12068006820F022
:1019C00004002168086094F85C1008208840A86032
:1019D000606D40F00100606594F85C100120884063
:1019E000304068B12068406900F0800040B194F850
:1019F0005C1001208840A860606D40F002006065C6
:101A000094F85C1004208840304068B12068006879
:101A100000F0020040B194F85C1004208840A860F7
:101A2000606D40F00400606594F85C101020884000
:101A3000304078B32068006800F0080050B394F894
:101A40005C1010208840A8602068006800F48020A6
:101A500080B12068006800F4002028B9206CC8B16B
:101A60002046216C884715E0A06C98B12046A16CF7
:101A700088470FE02068006800F4807028B920686B
:101A8000006820F0080021680860206C10B1204632
:101A9000216C884794F85C10202088403040002852
:101AA00065D02068006800F0100000285FD094F82E
:101AB0005C1020208840A86094F83500052828D1C3
:101AC0002068006820F016002168086020684069DE
:101AD00020F0800021684861206C08B9A06C28B112
:101AE0002068006820F008002168086094F85C1005
:101AF0003F208840A86000BF002084F8340000BF69
:101B0000012084F83500206D10B12046216D8847F2
:101B1000F8BD2068006800F4802080B1206800686B
:101B200000F4002028B9606C10B12046616C884731
:101B30001DE0E06BD8B12046E16B884717E02068D4
:101B4000006800F4807068B92068006820F0100018
:101B50002168086000BF002084F8340000BF012025
:101B600084F83500E06B10B12046E16B8847606D6A
:101B700038B3606D00F00100F0B1052084F8350045
:101B80002068006820F001002168086000BF00980C
:101B9000401C0090B84200D905E02068006800F0C1
:101BA00001000028F3D100BF00BF002084F83400FA
:101BB00000BF012084F83500E06C10B12046E16CD4
:101BC000884700BFA4E700002C4E00202DE9F0411B
:101BD0000446002500F0EAF9074614B90120BDE8E3
:101BE000F081606A00B100BF00BF002084F83400BB
:101BF00000BF022084F835002068006820F0010052
:101C0000216808600AE000F0D1F9C01B052805D959
:101C100020206065032084F83500E0E72068006834
:101C200000F001000028EED1206805682148054039
:101C3000D4E901010843E168084321690843616967
:101C40000843A1690843E1690843216A0843054341
:101C5000606A042803D1D4E90B01084305432068D6
:101C600005602068456925F00705606A0543606ADC
:101C700004280DD1A06A0543E06A48B12046FEF76A
:101C80000FFF28B140206065012084F83500A6E7E9
:101C9000206845612046FEF7E9FE064694F85C1090
:101CA0003F208840B06000206065012084F8350046
:101CB000002094E73F8010F02DE9F04704460D46E0
:101CC00016461F464FF00008D4F8589000BF94F80D
:101CD0003400012802D10220BDE8F087012084F8F9
:101CE000340000BF94F83500012825D1022084F883
:101CF0003500002060653B46324629462046FEF707
:101D000024FF94F85C103F208840C9F80800206840
:101D1000006840F0160021680860206C28B1206837
:101D2000006840F00800216808602068006840F002
:101D300001002168086006E000BF002084F834003C
:101D400000BF4FF002084046C6E7000070B50446E9
:101D500000F02CF906462546681C10B104480078AE
:101D6000054400BF00F022F9801BA842FAD370BDE1
:101D7000284E00202DE9F0410446B4F5807F09D1BA
:101D8000054D2E1D41F617123146044802F0B2F8F7
:101D9000074600BFBDE8F081A68200204C1A012052
:101DA00010B5044604480068204020B10248046091
:101DB0002046FFF7DFFF10BD143C0140F8B5034695
:101DC0000A460025002400200021CDE0012606FA65
:101DD00001F5166806EA0504AC4273D15668012E77
:101DE00008D05668022E05D05668112E02D05668CB
:101DF000122E13D198684F000326BE40B0434F0007
:101E0000D668BE4030439860586801268E40B04383
:101E10001679C6F300168E4030435860D8684F00DC
:101E20000326BE40B0434F009668BE403043D860A2
:101E30005668022E02D05668122E13D1CF0803F135
:101E4000200656F827004E07F70E0F26BE40B04377
:101E50004F07FF0E1669BE403043CF0803F120063E
:101E600046F8270018684F000326BE40B043167995
:101E700006F003064F00BE4030431860566806F077
:101E80008056B6F1805F6ED100BF00260096384EB6
:101E9000366846F48046364F3E603E46366806F465
:101EA0008046009600BF00BF324E8F0856F82700CC
:101EB0008E07370F0F26BE40B0432F4EB34202D1DC
:101EC000002615E04FE02D4EB34201D101260FE070
:101ED0002B4EB34201D102260AE02A4EB34201D171
:101EE000032605E0284EB34201D1042600E0072670
:101EF0008F073F0FBE4030431E4E8F0846F8270025
:101F0000224E3068A043566806F48036B6F5803F0E
:101F100000D120431D4E3060361D3068A043566806
:101F200006F40036B6F5003F00D12043174E361DAB
:101F30003060361D3068A043566806F48016B6F54A
:101F4000801F00D12043114E08363060361D3068A6
:101F5000A043566806F40016B6F5001F00D12043D2
:101F60000A4E0C363060491C1029FFF42FAFF8BD23
:101F7000443802400838014000000240000402409A
:101F800000080240000C024000100240003C0140EA
:101F9000024613690B400BB1012000E0002070479E
:101FA0000AB1816101E00B04836170470148006858
:101FB00070470000204E0020704770472DE9F84F11
:101FC0000446206847692068D0F80480002594F80A
:101FD0003E90C7F3002040B1C8F3002028B145F07F
:101FE00001056FF4807021684861C7F3402040B15B
:101FF000C8F3002028B145F002056FF40070216895
:102000004861C7F3802070B3C8F3002058B3CA46B4
:10201000B4F82AB094F83D60206B0090BAF1200F1C
:102020000FD1BBF1000F0CD1212E06D0292E04D0E8
:10203000282E06D10098212803D1204603F0ACFBBE
:1020400011E06FF480602168486145F00405B9F142
:10205000100F02D0B9F1400F05D12068006840F49C
:10206000007021680860C7F3C02040B1C8F30020A9
:1020700028B145F008056FF40060216848612DB172
:10208000206C28432064204602F0A2FEBDE8F88FB1
:102090002DE9F0470546002728684668D5F82C80CA
:1020A00095F83E9095F83DA0B9F1100F02D0B9F126
:1020B000400F78D1286887692868446904F00100D6
:1020C00060B9B8F52A0F02D0B8F12A4F01D101202A
:1020D00000E00020012801D1BDE8F08704F00100F4
:1020E00048B1C6F3402030B1284602F00DFE284624
:1020F00003F032FAACE0C4F3C00030B1C6F34020C4
:1021000018B1284603F0DFF8A2E0C4F3400030B174
:10211000C6F3402018B1284603F0EAF898E0C7F368
:102120008000F8B12868406800F40060B0F5006FE6
:10213000E0D0C4F3C01048B1C6F3802030B1C4F37E
:10214000800018B9284603F052F881E0C4F38000FB
:1021500000287DD0C6F34020002879D0284602F020
:10216000EEFF75E02868406800F40060B0F5006F8D
:102170006ED0C4F3801048B1C6F3802030B1C4F3F0
:10218000800018B9284602F088FF61E0C4F380009F
:1021900000285DD0C6F34020002859D0284602F020
:1021A000E9FE55E0FFE7286C10B12868446903E0B8
:1021B0002868876928684469C4F3400058B1C6F3A9
:1021C000402040B1286C08B1286887693946284604
:1021D00003F0AFFA3CE0C4F3001030B1C6F3402086
:1021E00018B1284603F028FB32E0BAF1210F02D0E3
:1021F000BAF1290F16D1C4F3C01048B1C6F380203C
:1022000030B1C4F3800018B9284603F06FFA1FE01C
:10221000C4F38000E0B1C6F34020C8B1284603F003
:1022200058FA15E0C4F3801048B1C6F3802030B1ED
:10223000C4F3800018B9284603F028FA08E0C4F374
:10224000800028B1C6F3402010B1284603F011FAEF
:1022500000BF41E77047000070B504460CB901208B
:1022600070BD94F83D0028B9002084F83C00204659
:1022700000F0E0F8242084F83D002068006820F099
:102280000100216808602068006840F4004021686F
:1022900008602068006820F400402168086001F0B0
:1022A0006DF905465C496068884206D85B488542FE
:1022B00001D2012007E0002005E05948854201D203
:1022C000012000E00020012800D1C9E75548B5FBF6
:1022D000F0F62068406820F03F00304321684860F5
:1022E0004D496068884201D8701C07E04FF4967031
:1022F00070434FF47A71B0FBF1F0401C2168096A19
:1023000021F03F0108432168086243496068884220
:1023100014D8681E61684900B0FBF1F0401CC0F39E
:102320000B00042801D204203DE0681E61684900CA
:10233000B0FBF1F0401CC0F30B0034E0A06838B9EA
:10234000681E616801EB4101B0FBF1F0401C0AE03E
:10235000681E616801EBC10202EB0111B0FBF1F0F4
:10236000401C40F48040C0F30B0008B901201AE083
:10237000A06848B9681E616801EB4101B0FBF1F04B
:10238000401CC0F30B000CE0681E616801EBC10249
:1023900002EB0111B0FBF1F0401CC0F30B0040F464
:1023A000804040F400402168C9694CF6FF729143B7
:1023B00008432168C861D4E9070108432168096816
:1023C00021F0C001084321680860D4E903100843E4
:1023D0002168896848F2FF32914308432168886088
:1023E000D4E9050108432168C96821F0FF010843C9
:1023F0002168C8602068006840F00100216808601A
:1024000000202064202084F83D000020206384F810
:102410003E0000BF24E70000A086010080841E006B
:1024200000093D0040420F007047704770477047F9
:102430007047000010B586B00446142101A8FDF7CE
:1024400013FF23492068884240D100BF002000903C
:102450002048006840F002001E49086008460068F5
:1024600000F00200009000BF00BF4FF440700190E8
:102470001220029001200390032004900420059074
:1024800001A91548FFF79AFC00BF002000901148F1
:102490001030006840F400100E4910310860084602
:1024A000006800F40010009000BF00BF002201216E
:1024B0001F2000F02FF91F2000F01CF9002201213D
:1024C000202000F027F9202000F014F906B010BDFC
:1024D00000540040303802400004024070470000C1
:1024E00010B5044600BF2068806900F0020008496A
:1024F0000860084600680028F5D103F063FA002060
:102500000449087005220449044800F009F810BD88
:10251000944D0020784D00206A4D0020A41C01201D
:1025200010B5034693F83D00202840D101B10AB907
:10253000012010BD00BF93F83C00012801D102200A
:10254000F7E7012083F83C0000BF1868006800F03E
:10255000010028B91868006840F001001C6820607C
:102560001868006820F400601C682060212083F84F
:102570003D00202083F83E000020186459625A85EF
:10258000588D18850B48D8621868006840F4806040
:102590001C68206000BF002083F83C0000BF186862
:1025A000406840F4E0601C6860600020C1E70220E1
:1025B000BFE700000000FFFF0348006803490978F7
:1025C0000844014908607047204E0020284E002032
:1025D00010B50D48006840F400700B4908600846CB
:1025E000006840F4806008600846006840F480702D
:1025F0000860032000F0CCF8002000F007F800F09D
:102600002BF8002010BD0000003C024070B50446CD
:102610000E4800784FF47A71B1FBF0F00C4909686C
:10262000B1FBF0F5284601F062FE08B1012070BD53
:10263000102C07D200222146501E00F06BF80548EE
:10264000046001E00120F2E70020F0E7284E0020BE
:102650002C4E0020244E002008B500BF0020009022
:102660001248006840F4804010490860084600683D
:1026700000F48040009000BF00BF00BF0020009029
:10268000081F006840F08050091F08600846006875
:1026900000F08050009000BF00BF002211460520CE
:1026A00000F038F8052000F025F808BD4438024055
:1026B00010B501460846002817DB00F01F03012271
:1026C0009A400B4B440943F8242000BF00BF00BFD1
:1026D000BFF34F8F00BF00BF00BF00BF00BF00BFF0
:1026E000BFF36F8F00BF00BF00BF00BF10BD000071
:1026F00080E100E001460846002809DB00F01F03E6
:1027000001229A4043099B0003F1E023C3F8002112
:1027100000BF70472DE9F05F80460D461646002742
:1027200007F03AF8074639462A46334601F00700D3
:10273000C0F1070ABAF1040F02D94FF0040A01E010
:10274000C0F1070AD14600F1040ABAF1070F02D21C
:102750004FF0000A01E0A0F1030AD4464FF0010A4D
:102760000AFA09FAAAF1010A0AEA020A0AFA0CFAB2
:102770004FF0010B0BFA0CFBABF1010B0BEA030B57
:102780004AEA0B042146404607F00EF8BDE8F09FE8
:1027900000BF00F00702064B19684FF6FF0319400F
:1027A000044B0B4343EA0221014B196000BF704701
:1027B0000CED00E00000FA05704702461068416227
:1027C00000207047F0B5034615461868446A21B9E1
:1027D00044EA05401E68B06219E01868806A04EB9C
:1027E0001044002208E0186800F5827050F82200BA
:1027F00004EB1044501CC2B2481E9042F3D844EA85
:102800000547186800F582704E1E40F826700020BB
:10281000F0BD10B50446D4F8040404F0BAFF10BDAE
:1028200070B504460D46C5EBC50304F13C0101EB50
:102830008301CA682946D4F8040404F0EEFE70BD92
:1028400070B504460D46C5EBC50304F5FE7101EBFA
:102850008301CA682946D4F8040404F051FF70BD0E
:1028600010B50446D4F8040404F096FF10BD70B50A
:1028700004460E4606F0800080280AD106F00F00BC
:10288000C0EBC00104F13C0000EB81050120687041
:1028900009E006F00F00C0EBC00104F5FE7000EB8C
:1028A00081050020687006F00F00287000BF94F8C2
:1028B000BC03012801D1022070BD012084F8BC03B3
:1028C00000BF2946206805F035FE00BF002084F8CF
:1028D000BC0300BF00BFEFE770B504460E4606F02C
:1028E0000F006168884201D9012070BD06F08000A8
:1028F00080280AD106F00F00C0EBC00104F13C00B3
:1029000000EB81050120687009E006F00F00C0EBC4
:10291000C00104F5FE7000EB810500206870002006
:10292000A87006F00F00287000BF94F8BC030128BF
:1029300001D10220D9E7012084F8BC0300BF294659
:10294000206806F0D9F800BF002084F8BC0300BF5F
:1029500000BFCAE770B504460D4600BF94F8BC033B
:10296000012801D1022070BD012084F8BC0300BF02
:1029700005F08000802805D105F00F01206806F0E1
:102980000FFB02E0206806F0F5FA00BF002084F893
:10299000BC0300BF00BFE6E7024601F00F00C0EB3A
:1029A000C00302F5FE7000EB8300806970472DE9DB
:1029B000F04705460E4690461F464FF0000906F0C8
:1029C000800080280AD106F00F00C0EBC00105F19D
:1029D0003C0000EB81040120607009E006F00F006C
:1029E000C0EBC00105F5FE7000EB810400206070B3
:1029F00006F00F002070C4F80880E770607808B116
:102A00002078E080022F01D10020207100BF95F8CE
:102A1000BC03012802D10220BDE8F087012085F81F
:102A2000BC0300BF2146286805F0A0FC00BF0020C1
:102A300085F8BC0300BF4846EEE72DE9F0410446A7
:102A40000E461746984606F00F00C0EBC00104F58D
:102A5000FE7000EB8105EF60C5F814800020A861CE
:102A6000687006F00F0028702069012800D12F61DE
:102A700006F00F0028B9227C2946206805F018FFCF
:102A800004E0227C2946206806F0CAF80020BDE850
:102A9000F08170B504460D4605F00F00616888426C
:102AA00001D9012070BD05F0800080280AD105F011
:102AB0000F00C0EBC00104F13C0000EB81060120D7
:102AC000707007E0C5EBC50104F5FE7000EB8106F0
:102AD000002070700120B07005F00F00307000BF52
:102AE00094F8BC03012801D10220DBE7012084F81F
:102AF000BC0300BF3146206806F045F805F00F0022
:102B000028B9217C04F57172206805F0BDFF00BF73
:102B1000002084F8BC0300BF00BFC3E72DE9F041EB
:102B200004460E461746984606F00F00C0EBC0015B
:102B300004F13C0000EB8105EF60C5F81480002033
:102B4000A8610120687006F00F0028702069012834
:102B500000D12F6106F00F0028B9227C2946206899
:102B600005F0A6FE04E0227C2946206806F058F80D
:102B70000020BDE8F0812DE9FE4F04462068029058
:102B8000029D206806F037FA00287DD1206806F003
:102B900071FA08B9BDE8FE8F206806F06BFA00F004
:102BA0000200022805D12068406900F00200216877
:102BB0004861206806F05EFA00F01000102846D147
:102BC0002068806920F01000216888610298D0F8A0
:102BD000209009F00F00C0EBC00104F5FE7000EB7F
:102BE000810BC9F3434002281AD147F6F07009EA75
:102BF000000030B3C9F30A12DBF80C10029806F09B
:102C00003EFAC9F30A11DBF80C000844CBF80C00BB
:102C1000C9F30A11DBF818000844CBF8180010E0DB
:102C2000C9F3434006280CD1082204F571710298BB
:102C300006F025FAC9F30A11DBF818000844CBF8AE
:102C400018002068806940F01000216888612068C1
:102C500006F010FA00F40020B0F5002F52D1002643
:102C6000206806F0D7F9824649E00AF00100E8B38F
:102C7000F1B2206806F0F1F9804608F0010058B181
:102C8000012105F5306000E021E200EB4610816093
:102C90003146204603F032F908F00800082809D12F
:102CA000082105F5306000EB461081603146204672
:102CB00003F0F2F808F01000102805D1102105F5F6
:102CC000306000EB4610816008F02000202805D11C
:102CD000202105F5306000EB4610816008F40050BB
:102CE000B0F5005F08D14FF4005100E004E005F5B5
:102CF000306000EB46108160761C4FEA5A0ABAF148
:102D0000000FB2D1206806F0B5F900F48020B0F5CC
:102D1000802F7ED1206806F073F98246002683E07A
:102D20000AF0010000287CD0F1B2206806F07CF99E
:102D3000804608F00100F0B306F00F010120884042
:102D4000019040F634004159019821EA000040F614
:102D500034014851012105F5106000EB46108160F7
:102D60002069012824D1C6EBC60104F13C0000EB28
:102D70008100C6EBC602C16804F13C0000EB820092
:102D800080680144C6EBC60204F13C0000EB8200FF
:102D9000C1606EB9C6EBC60104F13C0000EB8100D6
:102DA000406928B904F571720121206805F06CFEB4
:102DB000F1B2204600E001E0FFF732FD08F0080024
:102DC000082805D1082105F5106000EB4610816048
:102DD00008F01000102805D1102105F5106000EB57
:102DE0004610816008F04000402805D1402105F5DB
:102DF000106000EB4610816008F00200022805D147
:102E0000022105F5106000EB4610816008F080009B
:102E100001E00DE005E0802803D13146204603F0B3
:102E20002BF9761C4FEA5A0ABAF1000F7FF478AFFB
:102E3000206806F01FF900F00040B0F1004F1CD1EF
:102E400040F60400405920F0010140F604004151D1
:102E500094F8F403012807D1002084F8F40300213A
:102E60002046FFF7A9FC02E0204600F04EFA206859
:102E7000406900F0004021684861206806F0FAF8D7
:102E800000F40060B0F5006F0ED140F60800405924
:102E900000F0010010B1204600F08EFA2068406971
:102EA00000F4006021684861206806F0E3F800F44F
:102EB0008050B0F5805F7DD140F60400405920F08D
:102EC000010140F6040041511021206806F068F825
:102ED00000273EE04FF67F3105F5106000EB47100C
:102EE000816005F5106000EB4710006820F40011C8
:102EF00005F5106000EB4710016005F5106000EB70
:102F00004710006840F0006105F5106000EB4710C5
:102F100001604FF67F3105F5306000EB47108160AE
:102F200005F5306000EB4710006820F4001105F54E
:102F3000306000EB4710016005F5306000EB471092
:102F4000006840F0006105F5306000EB471001605B
:102F50007F1C6068B842BDD840F61C00405940F064
:102F6000011140F61C004151206B70B1D5F8840866
:102F700040F00B01C5F8841840F64400405940F079
:102F80000B0140F6440041510FE040F61400405957
:102F900042F22B01084340F614014851081F4059E2
:102FA00040F00B014FF401604151D5F8000820F4C6
:102FB000FE6000E00DE0C5F80008217C04F57172A8
:102FC000206805F061FD2068406900F480502168A8
:102FD0004861206806F04EF800F40050B0F5005F3C
:102FE00017D1206805F02AFA206805F0F1FFE060AB
:102FF00000F0BEFA0090227B2068009906F08AF863
:10300000204600F069F92068406900F4005021680A
:103010004861206806F02EF800F00800082808D162
:10302000204600F079F92068406900F00800216826
:103030004861206806F01EF800F48010B0F5801F8B
:103040000AD100263146204600F043F82068406946
:1030500000F4801021684861206806F00BF800F445
:103060000010B0F5001F0AD100263146204600F0BE
:1030700039F82068406900F4001021684861206830
:1030800005F0F8FF00F08040B0F1804F08D12046F5
:10309000FFF7BFFB2068406900F08040216848616D
:1030A000206805F0E7FF00F0040004280FD1206835
:1030B000D0F8049009F00400042802D12046FFF75C
:1030C000CFFB2068406840EA09002168486000BFE3
:1030D00060E570B504460D462946D4F8040404F0B2
:1030E000D1FB70BD70B504460D462946D4F80404E2
:1030F00004F0CBFB70BD70B58AB0044614B9012052
:103100000AB070BD266894F8BD0328B9002084F881
:10311000BC03204600F0A2F8032084F8BD03F06B46
:1031200000F4807008B900212161206805F0B8FB27
:10313000282204F110016846FDF77DF894E80F009D
:1031400005F090F920B1022084F8BD030120D7E7F3
:103150000021206805F0A4FF002531E00121C5EB26
:10316000C50204F13C0000EB82004170C5EBC501D3
:1031700004F13C0000F82150C5EBC50100EB8100D3
:10318000C5800021C5EBC50204F13C0000EB8200C4
:10319000C170C5EBC50204F13C0000EB8200816008
:1031A000C5EBC50204F13C0000EB8200C160C5EB39
:1031B000C50204F13C0000EB82004161681CC5B20D
:1031C0006068A842CAD800252AE00021C5EBC502E4
:1031D00004F5FE7000EB82004170C5EBC50104F5FB
:1031E000FE7000F821500021C5EBC50200EB820003
:1031F000C170C5EBC50204F5FE7000EB8200816072
:10320000C5EBC50204F5FE7000EB8200C160C5EBA2
:10321000C50204F5FE7000EB82004161681CC5B276
:103220006068A842D1D8282204F110016846FDF751
:1032300002F894E80F0005F043FA20B1022084F868
:10324000BD0301205CE7002084F83800012084F8E9
:10325000BD03206805F024FA002051E710B586B0C0
:1032600004462068B0F1A04F30D14FF4E0500190F7
:103270000220029000200390032004900A20059071
:1032800001A91348FEF79AFD00BF1248006840F0FC
:1032900080001049086000BF002000900D481030E9
:1032A000006840F480400B4910310860084600680F
:1032B00000F48040009000BF00BF00BF0022012149
:1032C0004320FFF727FA4320FFF714FA06B010BD9A
:1032D000000002403438024070B504460125E06821
:1032E00010B1022804D101E0002503E0012501E02E
:1032F000012500BF00BF2946D4F8040404F031FBC7
:10330000D4F8040404F0E4FA70BD10B50446D4F80F
:10331000040404F00AFB10BD10B50446D4F80404FC
:1033200004F00EFB10BD70B504460D4600BF94F8C6
:10333000BC03012801D1022070BD012084F8BC0328
:1033400000BF84F838502946206805F0C4FE00BF4D
:10335000002084F8BC0300BF00BFEDE710B50446B1
:1033600004F57171D4F8040404F009FB10BD70B5C4
:103370000446256800BF94F8BC03012801D102204F
:1033800070BD012084F8BC0300BFA06A012806D1EB
:10339000A069012803D0A86B40F48030A86320689E
:1033A00005F06EF9206805F0DDFD00BF002084F80F
:1033B000BC0300BF00BFE3E710B50446D4F8040423
:1033C00004F02AFB2068D0F8000E40F001002168CC
:1033D000C1F8000E206A28B10348006840F00600DA
:1033E0000149086010BD000010ED00E070B5044612
:1033F0000D460CB9012070BD5848006800F00F0060
:10340000A84209D255490D700846006800F00F0027
:10341000A84201D00120EEE7207800F00200022847
:103420001DD1207800F00400042805D14C48006824
:1034300040F4E0504A490860207800F0080008286D
:1034400005D14748006840F4604045490860444859
:10345000006820F0F000A168084341490860207826
:1034600000F00100A8B36068012807D13C48083883
:103470000068C0F34040B8B90120BCE7606802288A
:1034800002D06068032807D1354808380068C0F3C7
:10349000406048B90120AEE7314808380068C0F301
:1034A000400008B90120A6E72D48006820F003007D
:1034B000616808432A490860FEF778FD064609E07E
:1034C000FEF774FD801B41F28831884202D9032047
:1034D00091E707E02248006800F00C006168B0EB5B
:1034E000810FEDD11D48006800F00F00A84209D9F6
:1034F0001A490D700846006800F00F00A84201D07C
:10350000012078E7207800F00400042807D114484F
:10351000006820F4E050E168084311490860207811
:1035200000F00800082808D10D48006820F4604029
:10353000216940EAC1000A49086000F03FF80849E3
:103540000968C1F30311074A515CC8400649086085
:1035500006480068FFF75AF800204CE7003C02409C
:103560000838024024AE00082C4E0020244E0020D3
:1035700001480068704700002C4E002000B5FFF79E
:10358000F7FF04490968C1F38221034A515CC8402E
:1035900000BD00000838024034AE000800B5FFF757
:1035A000E7FF04490968C1F34231034A515CC8404E
:1035B00000BD00000838024034AE00082DE9F04795
:1035C000002400250026A1462548006800F00C00D4
:1035D00020B1042805D008283AD105E0DFF884900E
:1035E00039E0DFF8849036E01D48001F006800F0E5
:1035F0003F041B48001F006800F4800078B11A489F
:103600001749091F0968C1F38811A0FB0170014621
:10361000224600233846FCF7DDFD05460EE0114842
:103620000F49091F0968C1F38811A0FB0170014609
:10363000224600233846FCF7CDFD05460848001F0A
:103640000068C0F30140401C4600B5FBF6F902E0FB
:10365000DFF8109000BF00BF4846BDE8F0870000CB
:10366000083802400024F40000127A00F8B504463D
:103670000CB90120F8BD207800F00100002874D0BA
:10368000F948006800F00C0004280DD0F6480068E6
:1036900000F00C00082813D1F348001F006800F464
:1036A0008000B0F5800F0BD1EF4808380068C0F3F8
:1036B0004040002859D06068002856D10120D9E741
:1036C00000BF6068B0F5803F08D1E748083800685F
:1036D00040F48030E449083908601EE06068B0F5C5
:1036E000A02F0DD1E0480838006840F48020DE4962
:1036F000083908600846006840F4803008600CE033
:10370000D9480838006820F48030D7490839086063
:103710000846006820F48020086000BF606890B10F
:10372000FEF744FC054606E0FEF740FC401B64281B
:1037300001D903209EE7CC4808380068C0F3404018
:103740000028F1D011E0FEF731FC054606E0FEF757
:103750002DFC401B642801D903208BE7C2480838A0
:103760000068C0F340400028F1D1207800F002004A
:1037700002285FD1BC48006800F00C0058B1BA487C
:10378000006800F00C0008281CD1B748001F006832
:1037900000F48000B0B9B44808380068C0F34000B5
:1037A00020B1E068012801D0012063E7AE48083865
:1037B000006820F0F800216940EAC100AA490839F0
:1037C000086037E0E06800B30120A8490860FEF710
:1037D000EDFB054606E0FEF7E9FB401B022801D998
:1037E000032047E7A04808380068C0F340000028DD
:1037F000F1D09D480838006820F0F800216940EABF
:10380000C10099490839086014E000209749086010
:10381000FEF7CCFB054606E0FEF7C8FB401B02287E
:1038200001D9032026E7904808380068C0F340001B
:103830000028F1D1207800F0080008282CD1606918
:10384000A8B101208A490860FEF7B0FB054606E0F2
:10385000FEF7ACFB401B022801D903200AE782488F
:103860006C300068C0F340000028F1D014E0002064
:103870007F490860FEF79AFB054606E0FEF796FBD7
:10388000401B022801D90320F4E677486C30006819
:10389000C0F340000028F1D1207800F00400042893
:1038A00070D1002770483830006800F0805090B91F
:1038B00000BF002000906C483830006840F0805015
:1038C0006949383108600846006800F0805000906F
:1038D00000BF00BF01276748006800F48070B0B9DE
:1038E0006448006840F4807062490860FEF75EFB3F
:1038F000054606E0FEF75AFB401B022801D90320CB
:10390000B8E65C48006800F480700028F2D000BF80
:10391000A068012808D154486830006840F00100D0
:103920005149683108601DE0A06805280DD14E4856
:103930006830006840F004004B4968310860084670
:10394000006840F0010008600CE0474868300068FB
:1039500020F001004449683108600846006820F002
:103960000400086000BFA068A8B1FEF71FFB054671
:1039700009E0FEF71BFB401B41F28831884202D967
:10398000032077E626E0384868300068C0F340003E
:103990000028EED013E0FEF709FB054608E0FEF72D
:1039A00005FB401B41F28831884201D9032061E6C2
:1039B0002D4868300068C0F340000028EFD1012F87
:1039C00007D129483830006820F080502649383126
:1039D000086000BFA069002845D02348006800F0B7
:1039E0000C0008285DD0A069022845D100201F499D
:1039F0000866FEF7DBFA054606E0FEF7D7FA401B3D
:103A0000022801D9032035E6174808380068C0F3BA
:103A100040600028F1D1D4E907010843616A40EA17
:103A200081110122A06AC2EB500041EA00412C2022
:103A3000005D41EA00600C49091F086001200B4944
:103A40000866FEF7B3FA054606E0FEF7AFFA401B3C
:103A5000022801D903200DE6034808380068C0F3A6
:103A600040600028F1D03FE00838024000004742A3
:103A7000800E47420070004000201C490866FEF797
:103A800095FA054606E0FEF791FA401B022801D997
:103A90000320EFE516480068C0F340600028F2D12B
:103AA00022E0A069012800D1E4E51148001D066864
:103AB00006F48001E069814214D106F03F01206ADA
:103AC00081420FD147F6C0703040616A884209D107
:103AD00006F44031A06A814204D106F07061E06AC8
:103AE000814201D00120C5E50020C3E50000474226
:103AF00000380240014600BF91F85000012801D172
:103B000002207047012081F8500000BF086840681B
:103B100040F003000A68506000BF002081F85000A8
:103B200000BF00BFEDE770B504460025A06C40B1B2
:103B3000A06CFDF7BDFE20B1606D40F01000606527
:103B40000125E06C40B1E06CFDF7B2FE20B1606D84
:103B500040F01000606501252068406820F00300F7
:103B600021684860012084F85100284670BD7047E4
:103B7000F8B504462068466820688568C5F380105B
:103B800048B905F0010030B1C6F3801018B12046E5
:103B9000216C8847F8BDC5F3400030B1C6F3C010B2
:103BA00018B12046616C8847F4E7C5F3401030B97E
:103BB000C5F3801018B9C5F3002000287CD0C6F3E7
:103BC000401000287DD0C5F38010F0B194F851006A
:103BD00003280ED0606D40F00400606500BF002037
:103BE00000902068C068009020688068009000BF46
:103BF0000BE000BF002000902068C06800902068A3
:103C00008068009000BF00BFC4E7C5F3401088B1D2
:103C1000606D40F00100606500BF002000902068EA
:103C2000806800902068006820F0400021680860EB
:103C300000BF00BFC5F3002058B1606D40F0080020
:103C4000606500BF0020009020688068009000BF81
:103C500000BF606D78B32068406820F0E000216804
:103C60004860012084F8510006F00200022802D0CA
:103C700006F0010008B32068406820F003002168C6
:103C80004860E06C50B11048E16C0865E06CFDF7ED
:103C900064FE18B1606D40F040006065A06C50B1EA
:103CA0000948A16C0865A06CFDF757FE18B1606D5E
:103CB00040F04000606503E003E02046FFF757FF57
:103CC00068E700BF66E700005561000810B50446CC
:103CD0000CB9012010BD606A00B900BF0021A162CB
:103CE00094F8510028B9002084F85000204600F0D4
:103CF00033F8022084F851002068006820F040006A
:103D000021680860D4E901010843E168084321699A
:103D1000084361690843218B01F400710843E1699C
:103D20000843216A0843A16A084321680860042106
:103D3000A06901EA1040616A084321684860206870
:103D4000C06920F400602168C8610020606501201E
:103D500084F851000020BDE710B586B00446142158
:103D600001A8FCF781FA5A492068884258D100BF5F
:103D7000002000905748006840F480505549086082
:103D80000846006800F48050009000BF00BF00BFEC
:103D9000002000904F481438006840F001004D4961
:103DA000143908600846006800F00100009000BF68
:103DB00000BF702001900220029000200390032099
:103DC00004900520059001A94348FDF7F7FF4348FB
:103DD000434908604FF0806048604021404881605E
:103DE0000021C1604FF48061016149004161890097
:103DF00081610021C16101624162FDF7E7FE08B106
:103E0000FDF722FA00BF3648A064846300BF002299
:103E100011462320FEF77EFC2320FEF76BFC55E0C5
:103E200030492068884251D100BF002000902948C5
:103E3000001F006840F480402649091F08600846BA
:103E4000006800F48040009000BF00BF00BF002069
:103E5000009020481438006840F002001D491439D1
:103E600008600846006800F00200009000BF00BF34
:103E70004FF4304001900220029000200390032074
:103E800004900520059001A91748FDF797FF1748F2
:103E90001749086000204860002115488160C16012
:103EA0004FF48061016149004161890081614911DC
:103EB000C161002101624162FDF788FE08B1FDF792
:103EC000C3F900BF0A48E064846300BF06B010BDB8
:103ED000003001404438024000000240406402408B
:103EE000A41A01200038004000040240586002403B
:103EF000041B01202DE9F04104460E46154600271B
:103F0000A06870B96068B0F5827F0AD1042084F897
:103F100051002B4632463146204600F0B1F8BDE84C
:103F2000F08100BF94F85000012801D10220F6E78B
:103F3000012084F8500000BF94F85100012801D0FE
:103F4000022751E006B10DB901274DE0042084F8A5
:103F5000510000206065A663A587E5872064606442
:103F6000A086E086A068B0F5004F05D12068006803
:103F700020F48040216808601F48E16C08641F48F5
:103F8000E16CC8631E48E16CC8640020E16C086500
:103F9000E38FD4F800C00CF10C01A26BE06CFDF7CC
:103FA0008BFE40B1606D40F010006065012701207C
:103FB00084F8510018E02068006800F040004028B4
:103FC00005D02068006840F0400021680860206843
:103FD000406840F02000216848602068406840F058
:103FE00001002168486000BF00BF002084F8500035
:103FF00000BF384693E7000091610008BB610008EC
:104000006961000810B5044601201649087043F2A2
:104010003E2215491548FCF70EF91548007801288D
:1040200009D101211148001DFCF7B4FD0F48001D06
:10403000FCF7FCFF12E00E48007803280ED143F293
:104040003E220A490B48FCF7F6F80A49091D0A48BE
:10405000FDF7FBF80748001DFDF788F9002001492E
:10406000087010BD904D0020A682002068500020EE
:10407000804D002022E70020BCDA012070470000BC
:104080002DE9F04704460E4617461D464FF0000A3C
:1040900000BF94F85000012802D10220BDE8F0874B
:1040A000012084F8500000BF94F85180D4F80490A7
:1040B000B8F1010F0AD0B9F5827F04D1A06810B918
:1040C000B8F1040F02D04FF0020A7DE00EB107B143
:1040D00015B94FF0010A77E094F85100042802D096
:1040E000052084F85100002060652663A586E586DA
:1040F000A763A587E5872064606494F851000428CD
:1041000006D13548E16C08643448E16CC86305E0C9
:104110003348E16C08643348E16CC8633248E16CB1
:10412000C8640020E16C0865E38FD4F800C00CF18E
:104130000C01A26BE06CFDF7BFFD48B1606D40F073
:10414000100060654FF0010A012084F851003BE047
:104150002068406840F00100216848600020A16CA0
:104160000864A16CC863A16CC864A16C0865E38E87
:10417000D4F800C00CF10C02216BA06CFDF79CFD83
:1041800048B1606D40F0100060654FF0010A0120F9
:1041900084F8510018E02068006800F040004028D2
:1041A00005D02068006840F0400021680860206861
:1041B000406840F02000216848602068406840F076
:1041C00002002168486000BF00BF002084F8500052
:1041D00000BF504662E7000091610008BB61000823
:1041E000AD610008B7620008696100082DE9F0417F
:1041F00004460E461546002700BF94F850000128DB
:1042000002D10220BDE8F081012084F8500000BFF7
:1042100094F85100012801D0022752E006B10DB9EF
:1042200001274EE0032084F85100002060652663DA
:10423000A586E586A06360642064A087E087A06807
:10424000B0F5004F05D12068006840F48040216837
:1042500008601F48A16C08641E48A16CC8631E4812
:10426000A16CC8640020A16C0865E38ED4F800C07E
:104270000CF10C02216BA06CFDF71EFD40B1606DCE
:1042800040F0100060650127012084F8510018E01B
:104290002068006800F04000402805D020680068D1
:1042A00040F04000216808602068406840F020002D
:1042B000216848602068406840F00200216848603A
:1042C00000BF00BF002084F8500000BF384699E7C7
:1042D0009F61000837620008696100080121014AF6
:1042E00011707047824D002070477047704770B55D
:1042F00004462546681EB0F1807F01D301200FE0FF
:10430000681E4FF0E02148610F214FF0FF3005F0AB
:104310004BFA00204FF0E02188610720086100205F
:1043200070BD70477047000030B502460B4600BFB5
:1043300092F83C00012801D1022030BD012082F812
:104340003C0000BF022082F83D00106844681068FD
:10435000816824F070041868044310684460144DA8
:104360001068A84213D01068B0F1804F0FD0114DE3
:104370001068A8420BD0104D1068A84207D00F4D0E
:104380001068A84203D00E4D1068A84205D121F054
:1043900080015868014310688160012082F83D0067
:1043A00000BF002082F83C0000BF00BFC5E700004E
:1043B000000001400004004000080040000C0040E4
:1043C0000040014010B504460CB9012010BD94F81E
:1043D0003D0028B9002084F83C00204600F00CF88D
:1043E000022084F83D00211D206802F0B1F901206F
:1043F00084F83D000020E9E738B504462068B0F1B4
:10440000804F0FD100BF002000901548006840F099
:104410000100134908600846006800F001000090A0
:1044200000BF1BE00F492068884217D100BF002061
:1044300000900B48006840F00200094908600846F7
:10444000006800F00200009000BF00BF002211468B
:104450001D20FEF75FF91D20FEF74CF938BD000066
:1044600040380240000400400146022081F83D002F
:104470000868806800F00702062A05D0086800680E
:1044800040F001000B681860012081F83D00002019
:10449000704701460868C06840F001000B68D860AA
:1044A0000868806800F00702062A05D008680068DE
:1044B00040F001000B681860002070472DE9F041C2
:1044C00004460D4600BF94F83C00012802D10220AA
:1044D000BDE8F081012084F83C0000BF022084F890
:1044E0003D002068866826F0770626F47F4620681F
:1044F00086602868502833D00CDC202850D004DC9B
:1045000000284BD0102851D149E0302849D040280C
:104510004CD139E060282DD0702807D0B0F5805FED
:1045200003D0B0F5005F41D10DE040E0D5E90213C2
:104530006A68206802F05EF92068866846F07706AF
:104540002068866033E0D5E902136A68206802F0CB
:1045500051F92068806840F480402168886026E036
:10456000EA686968206802F059F95021206802F071
:104570004CF91CE0EA686968206802F062F9602181
:10458000206802F042F912E0EA686968206802F0E7
:1045900045F94021206802F038F908E000BF00BF6B
:1045A00000BF2968206802F030F900E000BF00BFBA
:1045B000012084F83D0000BF002084F83C0000BFCB
:1045C00000BF85E7704710B5044620680069C0F356
:1045D0004000D8B12068C068C0F34000B0B16FF0AF
:1045E000020021680861012020772068806900F0BE
:1045F000030018B12046FFF7E5FF05E0204600F074
:10460000ADF8204600F0ABF8002020772068006964
:10461000C0F38000D8B12068C068C0F38000B0B19A
:104620006FF004002168086102202077206880690B
:1046300000F4407018B12046FFF7C4FF05E02046A3
:1046400000F08CF8204600F08AF8002020772068DF
:104650000069C0F3C000D8B12068C068C0F3C000D2
:10466000B0B16FF00800216808610420207720684D
:10467000C06900F0030018B12046FFF7A3FF05E072
:10468000204600F06BF8204600F069F80020207703
:1046900020680069C0F30010D8B12068C068C0F37A
:1046A0000010B0B16FF01000216808610820207779
:1046B0002068C06900F4407018B12046FFF782FFFF
:1046C00005E0204600F04AF8204600F048F80020B7
:1046D00020772068006900F0010058B12068C068A8
:1046E00000F0010030B16FF0010021680861204640
:1046F00000F036F820680069C0F3C01058B1206897
:10470000C068C0F3C01030B16FF08000216808614C
:104710002046FFF706FE20680069C0F3801058B1FC
:104720002068C068C0F3801030B16FF0400021688D
:104730000861204600F015F820680069C0F34010B9
:1047400058B12068C068C0F3401030B16FF020004D
:10475000216808612046FFF7E5FD10BD70477047EE
:104760007047704770B50446002520684069C0F363
:10477000C01594F8390021280ED16DB12068406928
:1047800020F0800021684861206B10B1206BFDF79C
:104790008FF8204602F024F920684069C0F38015A4
:1047A00094F83A0022280ED16DB12068406920F0BB
:1047B000400021684861606B10B1606BFDF778F8CC
:1047C000204602F0EDF8002070BD70472DE9F0475B
:1047D0000446206805682068C668206847694FF06D
:1047E0000008C14605F00F08B8F1000F0AD105F026
:1047F000200038B106F0200020B1204602F0FAF87F
:10480000BDE8F087B8F1000F72D007F0010018B9C9
:1048100006F4907000286BD005F0010030B106F46A
:10482000807018B1E06B40F00100E06305F0040017
:1048300030B107F0010018B1E06B40F00200E06316
:1048400005F0020030B107F0010018B1E06B40F054
:104850000400E06305F0080048B106F0200010B93C
:1048600007F0010018B1E06B40F00800E063E06B76
:1048700070B305F0200028B106F0200010B12046EA
:1048800002F0B8F820684069C0F38019E06B00F0CE
:10489000080010B9B9F1000F23D0204602F080F8CB
:1048A0002068406900F04000402816D12068406927
:1048B00020F0400021684861606B50B11748616B7F
:1048C0000865606BFDF749F810B1606B016D8847B2
:1048D0000CE02046FFF779FF08E02046FFF775FF60
:1048E00004E02046FFF771FF0020E06388E7FFE760
:1048F00005F0800030B106F0800018B1204602F0CB
:10490000C1FA7DE705F0400030B106F0400018B173
:10491000204602F055F873E700BF71E7A56800086C
:1049200010B504460CB9012010BDA06900B100E02B
:1049300000BF94F8390028B9002084F838002046D8
:1049400000F028F8242084F839002068C06820F49A
:1049500000502168C860204602F0A0F82068006975
:1049600020F49040216808612068406920F02A0006
:10497000216848612068C06840F400502168C86020
:104980000020E063202084F8390084F83A000020F9
:10499000CAE7000010B586B00446142101A8FBF751
:1049A00063FC6C49206888427ED100BF00200090E3
:1049B0006948006840F010006749086008460068D0
:1049C00000F01000009000BF00BF00BF002000906A
:1049D00061481438006840F001005F4914390860EC
:1049E0000846006800F00100009000BF00BF00BF53
:1049F000002000900846006840F002000860084669
:104A0000006800F00200009000BF00BF4FF40040BB
:104A100001900220029000200390032004900720C0
:104A2000059001A94D48FDF7C9F908200190022021
:104A3000029000200390032004900720059001A914
:104A40004748FDF7BBF94748474908604FF0006009
:104A50004860002144488160C1604FF48061016179
:104A6000002141618161C16101624162FDF7AEF8DF
:104A700008B1FCF7E9FB00BF3B486063846300BFFB
:104A800038483030394908604FF0006048604021B4
:104A9000364881600021C1604FF4806101610021CE
:104AA00041618161C16100E014E001624162FDF792
:104AB0008DF808B1FCF7C8FB00BF2C482063846365
:104AC00000BF002211462520FDF724FE2520FDF71A
:104AD00011FE3DE026492068884239D100BF002000
:104AE00000901D48001F006840F400301A49091F5B
:104AF00008600846006800F40030009000BF00BF66
:104B000000BF0020009014481438006840F00100F5
:104B10001149143908600846006800F0010000904F
:104B200000BF00BF0C2001900220029000200390E3
:104B3000032004900720059001A90848FDF73EF9DD
:104B4000002211462620FDF7E5FD2620FDF7D2FDC7
:104B500006B010BD00100140443802400000024081
:104B60000004024088640240E41B0120441C012030
:104B70000044004077B581B00446154694F83A00E9
:104B8000202850D1029800B115B9012004B070BDA1
:104B900000BF94F83800012801D10220F6E7012077
:104BA00084F8380000BF0298A062A5850020E06369
:104BB000222084F83A001D48616BC8631C48616B71
:104BC00008641C48616BC8640020616B086502AE14
:104BD00032682368191D2B46606BFDF76DF800BF26
:104BE00000200090206800680090206840680090D5
:104BF00000BF00BF00BF002084F8380000BF20685D
:104C0000C06840F480702168C8602068406940F046
:104C10000100216848612068406940F04000216837
:104C200048610020B2E70220B0E7000009690008EF
:104C30004F690008B968000870477047F7B5044627
:104C4000154694F8390020283DD1019800B10DB9DE
:104C50000120FEBD00BF94F83800012801D10220D8
:104C6000F7E7012084F8380000BF01982062A5848E
:104C7000E5840020E063212084F839001348216B8B
:104C8000C8631348216B08641248216BC864002074
:104C9000216B086501AE23681A1D31682B46206B15
:104CA000FDF70AF86FF040002168086000BF00209F
:104CB00084F8380000BF2068406940F08000216817
:104CC00048610020C5E70220C3E700005D690008D5
:104CD00093690008B96800087047704700BFFEE795
:104CE00010B50248FDF76AF910BD0000A41C0120B0
:104CF00010B50120024908700248FDF7C9F910BD3E
:104D0000784D0020A41C0120C16AB1F52A0F02D100
:104D10000121C16205E0C16AB1F12A4F01D1082128
:104D2000C162704770B50546AC6B94F83D60606B2E
:104D300010B10020616BC863A06B10B10020A16BA3
:104D4000C8632068006820F4806021680860002043
:104D50006085606B10B10020616B0865A06B10B1BD
:104D60000020A16B08652068006820F00100216820
:104D7000086094F83D0060280AD1202084F83D00A6
:104D8000002084F83E0020642046FDF715F91EE05F
:104D900006F02800282811D12068006840F00100A2
:104DA000216808602068006840F48060216808601D
:104DB00000202063282084F83D0005E0202084F8AE
:104DC0003D00002084F83E002046FDF743FA70BD08
:104DD00070B5044694F83D6094F83E00102807D161
:104DE000222E05D12068006820F400602168086048
:104DF00006F02800282805D100202063282084F808
:104E00003D000FE02068406800F40060B0F5006FDE
:104E100004D0602E02D0202084F83D0000202063C2
:104E200084F83E002068406800F40060B0F5006F30
:104E300040D12068406820F4006021684860606BC1
:104E400090F83500012814D04848616B0865606B04
:104E5000FCF783FD00285BD02068006820F001008B
:104E600021680860202084F83D00606B016D884750
:104E70004EE03E48A16B0865A06BFCF76EFD002874
:104E800046D020684069C0F3801030B120680069C6
:104E9000616A0870606A401C60622068006820F0E7
:104EA000010021680860202084F83D00A06B016D9E
:104EB00088472DE094F83D0060281AD1202084F81E
:104EC0003D000020206420684069C0F3801030B1AC
:104ED00020680069616A0870606A401C606220682E
:104EE000006820F00100216808602046FDF764F8A2
:104EF0000EE020684069C0F3801030B1206800697E
:104F0000616A0870606A401C60622046FDF7A2F981
:104F1000256C05F0010058B905F00200022807D001
:104F200005F00400042803D005F00800082805D186
:104F30002068406820F4E0602168486094F83D6093
:104F4000206C00F0040004280ED1282E0CD1084853
:104F5000E06200202063202084F83D00002084F8D7
:104F60003E002046FDF760FA70BD0000254D0008A8
:104F70000000FFFF70B50446E56A608D042810D17B
:104F80002068406820F480602168486020680069DB
:104F9000616A0870606A401C6062608D401E6085B6
:104FA0007AE0608D03281AD12068406820F4806080
:104FB00021684860042D07D0022D05D020680068C4
:104FC00020F480602168086020680069616A0870C8
:104FD000606A401C6062608D401E60855CE0608D90
:104FE00002284FD1012D01D0102D06D12068006874
:104FF00020F480602168086012E0042D01D0022DA9
:1050000006D12068006840F480602168086007E0ED
:10501000102D05D02068006840F4007021680860F9
:1050200020680069616A0870606A401C6062608D77
:10503000401E608520680069616A0870606A401CD3
:105040006062608D401E60852068406820F440707A
:1050500021684860202084F83D0094F83E004028F4
:1050600007D1002084F83E0020632046FDF7DFF9D9
:1050700012E0002084F83E00122020632046FDF755
:10508000D4F909E020680069616A0870606A401C10
:105090006062608D401E608570BD70B5044694F8F6
:1050A0003D0022284AD1658D032D13D9206800695F
:1050B000616A0870606A401C6062608D401E608595
:1050C000608D032839D12068406820F48060216811
:1050D000486032E0E06A02282FD0012D00D01DBBCD
:1050E0002068006820F480602168086020684068BB
:1050F00020F4E0602168486020680069616A0870F7
:10510000606A401C6062608D401E6085202084F8CB
:105110003D0094F83E00402807D1002084F83E006E
:1051200020632046FDF783F907E0002084F83E0065
:10513000122020632046FDF778F900BF70BD70B5DE
:105140000446E56A94F83D00212848D1608D50B1AD
:10515000606A007821680861606A401C6062608D46
:10516000401E608542E0082D16D0202D14D015F584
:10517000803F11D02068406820F4E06021684860DA
:1051800011202063002084F83E00202084F83D0098
:105190002046FDF74BF929E02068406820F4E060E4
:1051A000216848602068006840F400702168086049
:1051B00000202063202084F83D0094F83E00402821
:1051C00006D1002084F83E002046FDF731F90DE0BD
:1051D000002084F83E002046FDF728F906E094F808
:1051E0003E00402802D1204600F005FA70BD2DE9AE
:1051F000F041044694F83D5094F83E70E66A208DE4
:10520000B0BB212D3CD1082E16D0202E14D016F57F
:10521000803F11D02068406820F4E0602168486039
:1052200011202063002084F83E00202084F83D00F7
:105230002046FDF7FBF844E02068406820F4E06079
:10524000216848602068006840F4007021680860A8
:1052500000202063202084F83D0094F83E00402880
:1052600007D1002084F83E002046FDF7E1F828E051
:1052700006E0002084F83E002046FDF7D7F820E045
:10528000212D03D0402F1CD1222D1AD1608D30B991
:105290002068406820F480602168486011E094F83C
:1052A0003E00402803D1204600F0A5F909E0606ADD
:1052B000007821680861606A401C6062608D401E51
:1052C0006085BDE8F081416CC9B202681161416B33
:1052D00009B9816B59B1416BC96B11B9816BC96B4C
:1052E00029B10168496841F4006102685160704762
:1052F00038B590F83E20C16A036B90F83D40222CEF
:1053000073D1046D64B9402A0AD100BF002400940F
:105310000468646900940468A469009400BF1AE1F9
:10532000046DC4B90469B4F5404F14D100BF002422
:1053300000940468646900940468A469009400BF40
:1053400000BF0468246844F4807405682C60046D10
:10535000641C0465FFE0448D8CB900BF00240094F8
:105360000468646900940468A469009400BF00BFE5
:105370000468246844F4007405682C60DDE0448D02
:10538000012C72D111F5803F30D10468246824F4D7
:10539000806405682C600468646804F40064B4F5F3
:1053A000006F10D10468246824F4806405682C60C0
:1053B00000BF002400940468646900940468A46930
:1053C000009400BFB9E000BF002400940468646941
:1053D00000940468A469009400BF00BF04682468B6
:1053E00044F4007405682C60A7E0A9E0082923D0E4
:1053F000202921D0122B01D101291DD104290AD045
:10540000022908D0102906D00468246824F4806496
:1054100005682C6005E00468246844F4806405682D
:105420002C6000BF00240094046864690094046840
:10543000A469009400BF80E00468246824F48064B8
:1054400005682C6000BF002400940468646900941F
:105450000468A469009400BF00BF0468246844F491
:10546000007405682C6068E0FFE7448D022C3BD196
:10547000042910D002290ED010290CD00468246809
:1054800024F4806405682C600468246844F4006493
:1054900005682C6005E00468246844F480640568AD
:1054A0002C600468646804F40064B4F5006F10D1E3
:1054B00011F5803F07D0012905D0082903D0102914
:1054C00001D0202905D10468646844F4805405683B
:1054D0006C6000BF00240094046864690094046850
:1054E000A469009400BF28E00468246844F4806440
:1054F00005682C600468646804F40064B4F5006F07
:1055000010D111F5803F07D0012905D0082903D01B
:10551000102901D0202905D10468646844F480541E
:1055200005686C6000BF00240094046864690094FE
:105530000468A469009400BF00BF002404650AE069
:1055400000BF002400940468646900940468A4699E
:10555000009400BF00BF38BD90F83E1040290ED126
:10556000016D29B9416C01F0FE010268116141E051
:10557000416CC9B241F00101026811613AE0016970
:10558000B1F5804F20D190F83D10212905D1416C13
:1055900001F0FE010268116105E0416CC9B241F001
:1055A000010102681161416B11B1416BC96B21B9F5
:1055B000816BF9B1816BC96BE1B10168496841F454
:1055C00000610268516015E0016D41B9416C01F460
:1055D0004071F02242EAE111026811610AE0016DB6
:1055E000012907D1416C01F44071F12242EAE11135
:1055F000026811617047016D99B9C16C012907D129
:10560000816CC9B202681161016D891C01652FE0CE
:10561000816CC1F3072102681161016D491C0165AC
:1056200026E0016D012907D1816CC9B202681161C0
:10563000016D491C01651BE0016D022918D190F82C
:105640003D10222906D10168096841F48071026881
:1056500011600DE090F83D10212909D1416A0978C7
:1056600002681161416A491C4162418D491E4185B0
:105670007047418D49B101680969426A1170416AF8
:10568000491C4162418D491E4185704770B50446F1
:1056900094F83D50608DD8B120680069616A087047
:1056A000606A401C6062608D401E6085608D78B9C4
:1056B0002A2D0DD12068406820F480602168486060
:1056C00022202063282084F83D002046FCF706FFB6
:1056D00070BD418D49B1416A097802681161416A22
:1056E000491C4162418D491E4185704770B5044691
:1056F00094F83D50608DD8B1606A007821680861E7
:10570000606A401C6062608D401E6085608D78B963
:10571000292D0DD12068406820F480602168486000
:1057200021202063282084F83D002046FCF7D8FE85
:1057300070BD2DE9F04104460D46002794F83D0068
:1057400000F0280028281CD12068406820F48060E0
:1057500021684860C5F3800000B90127C5F3C01077
:1057600010B9A08986B201E0208B86B200BF00206C
:1057700084F83C0000BF324639462046FCF71DFC49
:1057800008E06FF002002168486100BF002084F843
:105790003C0000BFBDE8F08170B5044694F83D5070
:1057A000E66A082E01D0202E1FD1282D1DD12148B8
:1057B000E0622068406820F4E060216848606FF48F
:1057C0008060216848612068006820F4806021685A
:1057D000086000202063202084F83D00002084F829
:1057E0003E002046FCF720FE23E0212D1DD111486C
:1057F000E06221202063202084F83D00002084F80E
:105800003E002068406820F4E060216848606FF442
:105810008060216848612068006820F48060216809
:1058200008602046FCF75CFE03E06FF480602168AE
:10583000486170BD0000FFFF38B5044694F83D5044
:105840002068406820F4E0602168486000BF0020C4
:1058500000902068406900902068006840F00100D6
:105860002168086000BF00BF2068006820F48060E5
:10587000216808602068406800F40060B0F5006F9F
:1058800042D1222D01D02A2D1FD1A06B0068406883
:105890006085608D18B1206C40F0040020642068A1
:1058A000406820F4006021684860A06BFCF769F84C
:1058B000012829D04148A16B0865A06BFCF74DF881
:1058C00010B3A06B016D88471EE0606B00684068F4
:1058D0006085608D18B1206C40F004002064206861
:1058E000406820F4006021684860606BFCF749F86C
:1058F000012809D03148616B0865606BFCF72DF811
:1059000010B1606B016D8847608D18B320684069E5
:10591000C0F3800048B120680069616A0870606A5D
:10592000401C6062608D401E608520684069C0F345
:10593000801048B120680069616A0870606A401C84
:105940006062608D401E6085608D18B1206C40F0F3
:1059500004002064206C18B12046FFF739FA2BE0D0
:105960002A2D07D100202063282084F83D002046FE
:10597000FCF7B4FD94F83D0028280DD11048E062F2
:1059800000202063202084F83D00002084F83E00A1
:105990002046FCF749FD0FE0206B222801D0222D84
:1059A0000AD100202063202084F83D00002084F8E4
:1059B0003E002046FCF792FD38BD0000254D000852
:1059C0000000FFFF10B586B04FF440700190122028
:1059D000029011200390032004900420059001A957
:1059E0001848FCF7EBF901224FF440711548FCF719
:1059F000D7FA002409E04FF480711248FCF7C8FA86
:105A0000012800D103E0601CC4B20A2CF3DB00BF04
:105A10001220029001A90B48FCF7D0F90A4800684F
:105A2000006840F4004008490968086006480068BA
:105A3000006820F4004004490968086000F008F993
:105A400006B010BD00040240A41C01201FB50020B8
:105A500000900190029003901548164908604FF499
:105A6000403048600021134881600161017680F870
:105A700020104FF08051C1624FF0C061816200215F
:105A8000C1600121C16180F830104161FBF7D4FD94
:105A900008B1FBF7D9FB0120009001900320029090
:105AA00069460448FBF782FC08B1FBF7CDFB1FBD3C
:105AB00000200140F81C012008B500BF0020009024
:105AC0002248006840F40010204908600846006839
:105AD00000F40010009000BF00BF00BF0020009045
